{
  "_format": "hh-sol-artifact-1",
  "contractName": "Bank",
  "sourceName": "contracts/Bank.sol",
  "abi": [
    {
      "anonymous": false,
      "inputs": [
        {
          "indexed": true,
          "internalType": "address",
          "name": "account",
          "type": "address"
        },
        {
          "indexed": false,
          "internalType": "uint256",
          "name": "amount",
          "type": "uint256"
        }
      ],
      "name": "etherDeposited",
      "type": "event"
    },
    {
      "anonymous": false,
      "inputs": [
        {
          "indexed": true,
          "internalType": "address",
          "name": "account",
          "type": "address"
        },
        {
          "indexed": false,
          "internalType": "uint256",
          "name": "amount",
          "type": "uint256"
        }
      ],
      "name": "etherWithdrawed",
      "type": "event"
    },
    {
      "inputs": [],
      "name": "deposit",
      "outputs": [],
      "stateMutability": "payable",
      "type": "function"
    },
    {
      "inputs": [],
      "name": "getBalanceAndLastDeposit",
      "outputs": [
        {
          "components": [
            {
              "internalType": "uint256",
              "name": "balance",
              "type": "uint256"
            },
            {
              "internalType": "uint256",
              "name": "lastDeposit",
              "type": "uint256"
            }
          ],
          "internalType": "struct Bank.Account",
          "name": "",
          "type": "tuple"
        }
      ],
      "stateMutability": "view",
      "type": "function"
    },
    {
      "inputs": [
        {
          "internalType": "uint256",
          "name": "_amount",
          "type": "uint256"
        }
      ],
      "name": "withdraw",
      "outputs": [],
      "stateMutability": "nonpayable",
      "type": "function"
    }
  ],
  "bytecode": "0x608060405234801561001057600080fd5b50610779806100206000396000f3fe6080604052600436106100345760003560e01c80632e1a7d4d1461003957806358d9600c14610062578063d0e30db01461008d575b600080fd5b34801561004557600080fd5b50610060600480360381019061005b9190610461565b610097565b005b34801561006e57600080fd5b50610077610271565b60405161008491906104cc565b60405180910390f35b6100956102db565b005b806000803373ffffffffffffffffffffffffffffffffffffffff1673ffffffffffffffffffffffffffffffffffffffff16815260200190815260200160002060000154101561011b576040517f08c379a000000000000000000000000000000000000000000000000000000000815260040161011290610544565b60405180910390fd5b806000803373ffffffffffffffffffffffffffffffffffffffff1673ffffffffffffffffffffffffffffffffffffffff168152602001908152602001600020600001600082825461016c9190610593565b9250508190555060003373ffffffffffffffffffffffffffffffffffffffff1682604051610199906105f8565b60006040518083038185875af1925050503d80600081146101d6576040519150601f19603f3d011682016040523d82523d6000602084013e6101db565b606091505b505090508061021f576040517f08c379a000000000000000000000000000000000000000000000000000000000815260040161021690610659565b60405180910390fd5b3373ffffffffffffffffffffffffffffffffffffffff167f47ed555d8b6242a89fcdab94795dc91c98a0e46db88f4a2b2bda3371956fd0d0836040516102659190610688565b60405180910390a25050565b61027961040c565b6000803373ffffffffffffffffffffffffffffffffffffffff1673ffffffffffffffffffffffffffffffffffffffff16815260200190815260200160002060405180604001604052908160008201548152602001600182015481525050905090565b6000341161031e576040517f08c379a0000000000000000000000000000000000000000000000000000000008152600401610315906106ef565b60405180910390fd5b346000803373ffffffffffffffffffffffffffffffffffffffff1673ffffffffffffffffffffffffffffffffffffffff168152602001908152602001600020600001600082825461036f919061070f565b92505081905550426000803373ffffffffffffffffffffffffffffffffffffffff1673ffffffffffffffffffffffffffffffffffffffff168152602001908152602001600020600101819055503373ffffffffffffffffffffffffffffffffffffffff167f4de483450f36dd8489373cf9166b2260f09ae72422d836e12fd9565cec1cb91e346040516104029190610688565b60405180910390a2565b604051806040016040528060008152602001600081525090565b600080fd5b6000819050919050565b61043e8161042b565b811461044957600080fd5b50565b60008135905061045b81610435565b92915050565b60006020828403121561047757610476610426565b5b60006104858482850161044c565b91505092915050565b6104978161042b565b82525050565b6040820160008201516104b3600085018261048e565b5060208201516104c6602085018261048e565b50505050565b60006040820190506104e1600083018461049d565b92915050565b600082825260208201905092915050565b7f4e6f7420656e6f7567682066756e647300000000000000000000000000000000600082015250565b600061052e6010836104e7565b9150610539826104f8565b602082019050919050565b6000602082019050818103600083015261055d81610521565b9050919050565b7f4e487b7100000000000000000000000000000000000000000000000000000000600052601160045260246000fd5b600061059e8261042b565b91506105a98361042b565b92508282039050818111156105c1576105c0610564565b5b92915050565b600081905092915050565b50565b60006105e26000836105c7565b91506105ed826105d2565b600082019050919050565b6000610603826105d5565b9150819050919050565b7f416e206572726f72206f63637572656400000000000000000000000000000000600082015250565b60006106436010836104e7565b915061064e8261060d565b602082019050919050565b6000602082019050818103600083015261067281610636565b9050919050565b6106828161042b565b82525050565b600060208201905061069d6000830184610679565b92915050565b7f4e6f7420656e6f7567682066756e6473206465706f7369746564000000000000600082015250565b60006106d9601a836104e7565b91506106e4826106a3565b602082019050919050565b60006020820190508181036000830152610708816106cc565b9050919050565b600061071a8261042b565b91506107258361042b565b925082820190508082111561073d5761073c610564565b5b9291505056fea2646970667358221220f33e47ae9a27442c5191569c65260a0da6b9c72e4a1c4cc50e6c154f6d11b4c064736f6c63430008110033",
  "linkReferences": {},
  "deployedLinkReferences": {}
}